:100000000C9461000C9489000C9489000C94890074
:100010000C9489000C9489000C9489000C9489003C
:100020000C9489000C9489000C9489000C9489002C
:100030000C9489000C9489000C9489000C9489001C
:100040000C944E040C9489000C9412030C944403F9
:100050000C9489000C9489000C9489000C948900FC
:100060000C9489000C948900000000080002010033
:10007000000304070000000000000000000102046B
:10008000081020408001020408102001020408101A
:100090002080040404040404040402020202020294
:1000A0000303030303030200000000250028002BC4
:1000B0000000000000240027002A0000C80174038B
:1000C000D40111241FBECFEFD8E0DEBFCDBF11E0B9
:1000D000A0E0B1E0E2E2F3E102C005900D92A434A9
:1000E000B107D9F722E0A4E4B1E001C01D92A0302D
:1000F000B207E1F710E0C0E6D0E004C02197FE01AE
:100100000E944708CE35D107C9F70E94A2030C947C
:1001100084090C94000026E040E855E260E070E0BD
:1001200084E591E00E94AD0261E08DE00E94190536
:1001300084E491E00E941D0684E491E00C9466063C
:100140008F929F92AF92BF92CF92DF92EF92FF92E7
:100150000F93CF93DF935C016B017A018BE0829F59
:10016000E001839FD00D11244E018BE0880E911C7D
:10017000C815D9058CF4F5010081F6012081F7013D
:100180004081BE0184E491E00E94800784E491E014
:100190000E9466062196ECCFDF91CF910F91FF90E0
:1001A000EF90DF90CF90BF90AF909F908F90089589
:1001B0006F927F928F929F92AF92BF92CF92DF9277
:1001C000EF92FF920F931F93CF93DF93FC013B01BC
:1001D000EA014901BC0180E090E0EC32F140D0F44A
:1001E0001F921F921F922FEF2F93A12CB12C65010C
:1001F0001CE2E12EFF24F39400E010E020E030E068
:10020000A9010E948405F3011082862F8095F401D4
:10021000808319C01F921F921F922FEF2F93A12C42
:10022000B12C650118EBE12EFF24F39400E010E0FF
:100230002DE231E040E050E00E948405F30160834C
:10024000F4011082609568830F900F900F900F90CB
:10025000DF91CF911F910F91FF90EF90DF90CF90A2
:10026000BF90AF909F908F907F906F9008958F92E6
:100270009F92AF92BF92CF92DF92EF92FF920F9335
:100280001F93CF93DF9300D01F92CDB7DEB78EE0E0
:100290000E94D3044C018FE00E94D3045C0180E1F2
:1002A0000E94D3046C0181E10E94D3048C0182E19D
:1002B0000E94D3047C0167E071E084E591E00E9434
:1002C000F0034AE050E0B40184E591E00E94480464
:1002D00060E171E084E591E00E94F0034AE050E0C3
:1002E000B50184E591E00E94480469E171E084E58C
:1002F00091E00E94F0034AE050E0B60184E591E00D
:100300000E94480462E271E084E591E00E94F003FB
:100310004AE050E0B80184E591E00E9448046BE2B5
:1003200071E084E591E00E94F0030FEF13E00E19F5
:100330001F094AE050E0B80184E591E00E944804BA
:100340009E012F5F3F4FAE014E5F5F4FBE016D5F5D
:100350007F4FC8010E94D80020E030E0AE014F5F1F
:100360005F4FBE016E5F7F4FCE0103960E94A000DB
:100370000F900F900F90DF91CF911F910F91FF90F1
:10038000EF90DF90CF90BF90AF909F908F900895A7
:100390000F9304E226E045E060E970E084E491E038
:1003A0000E9461070F91089584E491E00C94320655
:1003B000FC01918D228D892F90E0805C9F4F821BE4
:1003C00091098F7399270895FC01918D828D98175B
:1003D00031F0828DE80FF11D858D90E008958FEF4B
:1003E0009FEF0895FC01918D828D981761F0828DA9
:1003F000DF01A80FB11D5D968C91928D9F5F9F7359
:10040000928F90E008958FEF9FEF0895FC01538D38
:10041000448D252F30E0842F90E0821B930B5417DE
:1004200010F0CF960895019708958AE693E0892BFE
:1004300049F080E090E0892B29F00E946A03811145
:100440000C9400000895FC01848DDF01A80FB11DFC
:10045000A35ABF4F2C91848D90E001968F739927FA
:10046000848FA689B7892C93A089B1898C918064E7
:100470008C93938D848D981306C00288F389E02DA8
:1004800080818F7D80830895EF92FF920F931F9359
:10049000CF93DF93EC0181E0888F9B8D8C8D981337
:1004A00005C0E889F989808185FD24C0F62E0B8D71
:1004B00010E00F5F1F4F0F731127E02E8C8DE81295
:1004C0000CC00FB607FCFACFE889F989808185FF57
:1004D000F5CFCE010E942302F1CF8B8DFE01E80FF4
:1004E000F11DE35AFF4FF0820B8FEA89FB8980816F
:1004F000806207C0EE89FF896083E889F98980817D
:100500008064808381E090E0DF91CF911F910F9113
:10051000FF90EF900895CF93DF93EC01888D8823AF
:10052000C9F0EA89FB89808185FD05C0A889B98960
:100530008C9186FD0FC00FB607FCF5CF808185FF3B
:10054000F2CFA889B9898C9185FFEDCFCE010E94A9
:100550002302E7CFDF91CF910895CF92DF92EF9200
:10056000FF921F93CF93DF93EC016A017B01122F5F
:10057000E889F98982E080834115514E6105710552
:10058000B1F060E079E08DE390E0A70196010E9470
:10059000FB07DA01C9010197A109B109B695A79531
:1005A000979587959C01211580E13807A8F0E88987
:1005B000F989108260E874E88EE190E0A701960165
:1005C0000E94FB07DA01C9010197A109B109B6959B
:1005D000A795979587959C01EC85FD853083EE85E1
:1005E000FF852083188EEC89FD891083EA89FB89B9
:1005F000808180618083EA89FB8980818860808333
:10060000EA89FB89808180688083EA89FB8980810F
:100610008F7D8083DF91CF911F91FF90EF90DF90CE
:10062000CF9008951F920F920FB60F9211242F931F
:100630008F939F93EF93FF93E0916401F091650195
:100640008081E0916A01F0916B0182FD12C090817E
:1006500080916D018F5F8F7320916E01821751F031
:10066000E0916D01F0E0EC5AFE4F958F80936D01A3
:1006700001C08081FF91EF919F918F912F910F90F9
:100680000FBE0F901F9018951F920F920FB60F92EA
:1006900011242F933F934F935F936F937F938F9387
:1006A0009F93AF93BF93EF93FF9384E591E00E94F4
:1006B0002302FF91EF91BF91AF919F918F917F9115
:1006C0006F915F914F913F912F910F900FBE0F90BF
:1006D0001F90189584E591E00E94D80121E0892BB4
:1006E00009F420E0822F0895E4E5F1E013821282FC
:1006F00088EE93E0A0E0B0E084839583A683B7837F
:1007000086E391E09183808385EC90E095878487F0
:1007100084EC90E09787868780EC90E0918B808BCB
:1007200081EC90E0938B828B82EC90E0958B848BB4
:1007300086EC90E0978B868B118E128E138E148E22
:10074000089508950E9498040E94A1030E948B00BE
:10075000C5E1D2E00E9437012097E1F30E94150223
:10076000F9CFCF92DF92EF92FF920F931F93CF9327
:10077000DF936C017A018B01C0E0D0E0CE15DF057C
:1007800081F0D8016D918D01D601ED91FC91019020
:10079000F081E02DC6010995892B11F02196EECF4D
:1007A0007E01C701DF91CF911F910F91FF90EF90D4
:1007B000DF90CF9008956115710579F0FB010190EC
:1007C0000020E9F73197AF01461B570BDC01ED9193
:1007D000FC910280F381E02D099480E090E008957F
:1007E0000C94DB038F929F92AF92BF92EF92FF9295
:1007F0000F931F93CF93DF93CDB7DEB7A1970FB6BB
:10080000F894DEBF0FBECDBF7C01FA01CB0119A267
:10081000223008F42AE08E010F5D1F4F822E912CAA
:10082000A12CB12CBF01A50194010E94FB07F90185
:10083000CA01015011096A3010F4605D01C0695CA1
:10084000D8016C93232B242B252B61F7B801C7010A
:100850000E94DB03A1960FB6F894DEBF0FBECDBF9A
:10086000DF91CF911F910F91FF90EF90BF90AF90CC
:100870009F908F9008952115310541F4DC01ED9191
:10088000FC910190F081E02D642F09940C94F20307
:100890009A01AB0160E070E00C943B041F920F9250
:1008A0000FB60F9211242F933F938F939F93AF9383
:1008B000BF938091F2019091F301A091F401B09166
:1008C000F5013091F10123E0230F2D3720F401963B
:1008D000A11DB11D05C026E8230F0296A11DB11D63
:1008E0002093F1018093F2019093F301A093F4011E
:1008F000B093F5018091F6019091F701A091F80174
:10090000B091F9010196A11DB11D8093F60190935C
:10091000F701A093F801B093F901BF91AF919F91B6
:100920008F913F912F910F900FBE0F901F901895B0
:10093000789484B5826084BD84B5816084BD85B5BA
:10094000826085BD85B5816085BDEEE6F0E0808181
:1009500081608083E1E8F0E01082808182608083A2
:10096000808181608083E0E8F0E080818160808325
:10097000E1EBF0E0808184608083E0EBF0E0808157
:1009800081608083EAE7F0E08081846080838081F9
:1009900082608083808181608083808180688083A1
:1009A0001092C10008958E3008F08E5020910601FB
:1009B00090E4299F900111248770822B80937C0002
:1009C00080917A00806480937A0080917A0086FD1D
:1009D000FCCF809178002091790090E0922B0895CF
:1009E000833081F028F4813099F08230A1F00895AD
:1009F0008730A9F08830B9F08430D1F4809180003C
:100A00008F7D03C0809180008F7780938000089550
:100A100084B58F7702C084B58F7D84BD08958091A1
:100A2000B0008F7703C08091B0008F7D8093B000BD
:100A30000895CF93DF9390E0FC01E358FF4F24919A
:100A4000FC01EE56FF4F8491882361F190E0880FFE
:100A5000991FFC01EF54FF4FC591D491FC01E9555A
:100A6000FF4FA591B491611109C09FB7F894888197
:100A7000209582238883EC912E230BC0623061F491
:100A80009FB7F8948881322F309583238883EC9127
:100A90002E2B2C939FBF06C08FB7F894E8812E2B86
:100AA00028838FBFDF91CF9108951F93CF93DF935A
:100AB000282F30E0F901E859FF4F8491F901E358FC
:100AC000FF4FD491F901EE56FF4FC491CC23C1F0F2
:100AD000162F81110E94F004EC2FF0E0EE0FFF1FA3
:100AE000E955FF4FA591B4919FB7F894111104C037
:100AF0008C91D095D82302C0EC91DE2BDC939FBF64
:100B0000DF91CF911F9108954F925F926F927F92E4
:100B1000AF92BF92CF92DF92EF92FF920F931F930B
:100B2000CF93DF93CDB7DEB729013A019B01AC012A
:100B3000241935094609570989899A89AB89BC89DD
:100B4000BC01CD016A197B098C099D090E94EB0744
:100B5000A801970124193509460957090E941D0863
:100B6000CA01B9016A0D7B1D8C1D9D1DDF91CF91BE
:100B70001F910F91FF90EF90DF90CF90BF90AF90BB
:100B80007F906F905F904F9008958EBD00000DB4E0
:100B900007FEFDCF8EB508950E94A1078CB58C7F0E
:100BA0008CBD8DB581608DBD8CB58F7D8CBD8CB5B8
:100BB000837F8CBD0895CF93DF93EC0161E08A8140
:100BC0000E94190561E08B810E9419058A8190E0DD
:100BD000FC01EE56FF4FE491F0E0EE0FFF1FE955E8
:100BE000FF4FA591B491BD87AC872B8130E0F9010F
:100BF000EE56FF4FE491F0E0EE0FFF1FE955FF4F77
:100C0000459154915F874E87FC01E358FF4F8491D3
:100C10008A87F901E358FF4FE491EB879C91E82F15
:100C2000E095E923EC93EE85FF8590818B85809597
:100C300089238083DF91CF910895FC0122812F3F8A
:100C400011F40C94CC050C94DB05CF93DF93EC01ED
:100C500060E08A810E94190560E08B81DF91CF916D
:100C60000C941905CF93DF93EC018D819E81009741
:100C700011F00E94F4088A818F3F21F4DF91CF9117
:100C80000C94D707CE01DF91CF910C942506FC017F
:100C900029E02150D1F0A485B58582859C9167FF1C
:100CA00002C0892B02C0809589238C93A685B785C5
:100CB0009C918385892B8C93A685B7859C91838590
:100CC000809589238C93660FE4CF0895BF92CF92CD
:100CD000DF92EF92FF920F931F93CF93DF93FC016C
:100CE000058116810115110509F496C0EC01E0801B
:100CF000F180B48082818F3F09F040C080E00E9483
:100D0000C50580E00E94C50580E00E94C5051EBCA7
:100D10004FEF0DB407FEFDCF4EBDF80183E09C817F
:100D2000992331F02081B29E90011124932F01C0AC
:100D300090810DB407FEFDCF9EBD8150319681118B
:100D4000EECF0D5F1F4FF1E0EF1AF10811F70DB470
:100D500007FEFDCF10E0212F30E0888199810F96AA
:100D600064E0969587956A95E1F72817390708F0AA
:100D700053C08FEF0E94C5051F5FEDCF54E0D52E05
:100D800060E0CE010E944706DA94D110F9CF8C8141
:100D9000882339F16FEFCE010E94470668010D5F8D
:100DA0001F4FF60181916F01B89EC0011124692F78
:100DB000CE010E944706C016D10699F7F1E0EF1A5E
:100DC000F10841F710E015C0F60161916F01CE0105
:100DD0000E944706C016D106B9F7F1E0EF1AF108F4
:100DE00089F36FEFCE010E94470668010D5F1F4F28
:100DF000EBCF212F30E0888199810F9644E09695C2
:100E000087954A95E1F72817390730F46FEFCE013F
:100E10000E9447061F5FEDCFDF91CF911F910F9189
:100E2000FF90EF90DF90CF90BF900895FC019781E5
:100E3000808520813181A901981307C04D5F5F4FE4
:100E4000569547955695479502C0440F551F420F3A
:100E5000531F60E070E0858196810C947D090F93AB
:100E60001F93CF93DF93EC018B018D819E810097BF
:100E700011F00E94F4089F818885981307C0C8016B
:100E80000396969587959695879503C0C801880F18
:100E9000991F800F911F0E945C089E838D83892B70
:100EA00049F019830883CE01DF91CF911F910F91F3
:100EB0000C94160719821882DF91CF911F910F9120
:100EC00008950F931F93FC0142832383148216829B
:100ED0001582802F8370878310E0C80195958795D0
:100EE000959587958370808734E0159507953A9599
:100EF000E1F703700187CF011F910F910C942F0729
:100F00000F93FC018081918168177907C0F4CB01B0
:100F1000880F991F680F791F85819681680F791F47
:100F20008781DB01A80FB11D4C938085DB01A80FE1
:100F3000B11D2C938185FB01E80FF11D00830F91FA
:100F40000895CF93CFB7F8948091FB01811127C00A
:100F5000ECE9F0E08491E7E8F0E09491E82FF0E02C
:100F6000EE0FFF1FEF54FF4FA591B491EC91E923D1
:100F700021F461E08AE00E94550561E08AE00E9468
:100F800019058CB580618CBD8CB580648CBD61E029
:100F90008DE00E94190561E08BE00E9419058091A7
:100FA000FB018F5F8093FB01CFBFCF9108959FB767
:100FB000F8948091FB01882319F081508093FB0104
:100FC0008091FB01811105C08CB58F7B8CBD109287
:100FD000FA019FBF0895DB018F939F930E943C0805
:100FE000BF91AF91A29F800D911DA39F900DB29FC5
:100FF000900D11240895A1E21A2EAA1BBB1BFD011E
:101000000DC0AA1FBB1FEE1FFF1FA217B307E407E7
:10101000F50720F0A21BB30BE40BF50B661F771F3F
:10102000881F991F1A9469F760957095809590951F
:101030009B01AC01BD01CF010895052E97FB1EF465
:1010400000940E94340857FD07D00E94FB0707FC5C
:1010500003D04EF40C94340850954095309521956A
:101060003F4F4F4F5F4F08959095809570956195D4
:101070007F4F8F4F9F4F08950E944D08A59F900D61
:10108000B49F900DA49F800D911D11240895EE0F23
:10109000FF1F0590F491E02D0994A29FB001B39F2A
:1010A000C001A39F700D811D1124911DB29F700D71
:1010B000811D1124911D08950F931F93CF93DF93EA
:1010C0008230910510F482E090E0E091FE01F09111
:1010D000FF0120E030E0A0E0B0E0309719F140815E
:1010E00051810281138148175907C8F08417950769
:1010F00069F4109731F012960C93129713961C9383
:1011000027C00093FE011093FF0122C02115310575
:1011100019F04217530718F49A01BD01EF01DF01DE
:10112000F801DBCF21153105F9F0281B390B2430EC
:10113000310580F48A819B816115710521F0FB01E5
:101140009383828304C09093FF018093FE01FE018C
:10115000329644C0FE01E20FF31F81939193225017
:101160003109398328833AC02091FC013091FD0177
:10117000232B41F420910201309103013093FD01B2
:101180002093FC01209100013091010121153105CE
:1011900041F42DB73EB74091040150910501241B45
:1011A000350BE091FC01F091FD01E217F307A0F48B
:1011B0002E1B3F0B2817390778F0AC014E5F5F4FAD
:1011C0002417350748F04E0F5F1F5093FD014093E1
:1011D000FC018193919302C0E0E0F0E0CF01DF9148
:1011E000CF911F910F910895CF93DF93009709F44A
:1011F00081C0FC01329713821282A091FE01B0914E
:10120000FF01109781F420813181820F931F20917B
:10121000FC013091FD012817390751F5F093FD01CC
:10122000E093FC0167C0ED0120E030E0CE17DF075E
:1012300040F44A815B819E0141155105F1F0EA01BC
:10124000F5CFD383C28340815181840F951FC81786
:10125000D90759F488819981840F951F029691834B
:1012600080838A819B81938382832115310529F4B0
:10127000F093FF01E093FE013DC0E901FB83EA83A7
:1012800049915991C40FD51FEC17FD0761F4808176
:101290009181840F951F0296E90199838883828149
:1012A00093819B838A83E0E0F0E012968D919C917C
:1012B0001397009719F0FD01DC01F7CF8D919C91F8
:1012C00011979D012E5F3F4F820F931F2091FC01CC
:1012D0003091FD012817390769F4309729F41092ED
:1012E000FF011092FE0102C013821282B093FD0131
:1012F000A093FC01DF91CF910895DC0101C06D93B3
:1013000041505040E0F7089510E0C0E6D0E004C03E
:10131000FE010E9447082196C136D107C9F7F8940B
:02132000FFCFFD
:10132200000000022000010A74656D70303A20004E
:101332000974656D70313A20000974656D70323A36
:1013420020000974656D70333A2000094176673ACE
:101352002000000000004402B10306028B02D80103
:04136200F201E401AF
:00000001FF
