:1000000009C1000037C1000035C1000033C1000044
:1000100031C100002FC100002DC100002BC1000024
:1000200029C1000027C1000025C1000023C1000034
:1000300021C100001FC100001DC100001BC1000044
:1000400019C1000017C1000015C1000013C1000054
:1000500011C100000FC100000DC1000043C7000026
:1000600009C10000A2C50000D6C5000003C1000000
:1000700001C10000FFC00000FDC00000FBC0000087
:10008000F9C00000F7C00000F5C00000F3C0000098
:10009000F1C00000EFC00000EDC00000EBC00000A8
:1000A000E9C00000E7C00000E5C00000E3C00000B8
:1000B000E1C00000DFC00000DDC00000DBC00000C8
:1000C000D9C00000D7C00000D5C00000D3C00000D8
:1000D000D1C00000CFC00000CDC00000CBC00000E8
:1000E000C9C000005D0860084F0853085908970808
:1000F000640868086E08720876087C08800884081E
:1001000097088A088E08920800000A0B02090C0D55
:100110000E080703040100000000000000000000BA
:1001200000000000000000000000000000000000CF
:10013000000000001211100000000000000000008C
:1001400000000000000000000000000000000102AC
:1001500010202008081020401020408002010201D9
:100160000804020101020408102040808040201091
:1001700008040201800402018040201008040201EA
:100180000804020101020408102040800102040852
:10019000102040800505050507050808080802022B
:1001A00002020A0A08080404040401010101010111
:1001B00001010303030303030303040707070C0CF4
:1001C0000C0C0C0C0C0C02020202060606060606BB
:1001D00006060B0B0B0B0B0B0B0B00002200250074
:1001E00028002B002E003100340002010000050120
:1001F00008010B0100002100240027002A002D0027
:100200003000330001010000040107010A01680405
:100210003D066E0411241FBECFEFD1E2DEBFCDBF7D
:1002200000E00CBF12E0A0E0B2E0EEEDF9E100E08A
:100230000BBF02C007900D92A03BB107D9F723E096
:10024000A0EBB2E001C01D92AC3BB207E1F711E0B8
:10025000C9E0D1E000E006C021970109802FFE012E
:100260000E94950BC730D10780E00807A9F733D566
:100270000C94DE0CC5CE2F923F924F925F926F92FC
:100280007F928F929F92AF92BF92CF92DF92EF9226
:10029000FF920F931F93CF93DF93CDB7DEB72C97C9
:1002A0000FB6F894DEBF0FBECDBF26E040E854E89D
:1002B0006EE170E080E193E015D480E093E00E946D
:1002C000960980E093E00E94D80960E084E030D78E
:1002D00061E085E02DD78AE0E7E0F2E0DE011196EB
:1002E00001900D928A95E1F788ED92E09C878B87CB
:1002F000FE0131964F0100E010E022242A9493E0A1
:10030000392E85E6A82EB12CC12CD12C7601F1E036
:10031000AF1AB10891F1F401808190D62101481AF9
:10032000590A052C000C6608770861E172E080E14B
:1003300093E01AD52AE030E0B301A20180E193E016
:1003400076D56AE172E080E193E00ED54AE050E0B4
:10035000B80180E193E0C0D5C40CD51CE61CF71CA5
:1003600060E272E080E193E0FFD42AE030E0B70180
:10037000A60180E193E04AD5CACF67E272E080E14E
:1003800093E0F2D44AE050E064E670E080E193E06C
:10039000A3D5C701B60124E630E040E050E00E945A
:1003A000570B69017A0161E372E080E193E0DCD4EC
:1003B0002AE030E0B701A60180E193E038D5EB8573
:1003C000FC85C192D192E192F192FC87EB870F5F9D
:1003D0001F4FFFEF8F1A9F0A0930110509F091CFC7
:1003E0002C960FB6F894DEBF0FBECDBFDF91CF9134
:1003F0001F910F91FF90EF90DF90CF90BF90AF9043
:100400009F908F907F906F905F904F903F902F9034
:1004100008958F929F92AF92BF92CF92DF92EF9208
:10042000FF920F93CF93DF935C016B017A018BE016
:10043000829FE001839FD00D11244E018BE0880E36
:10044000911CC815D9056CF4F5010081F6012081D5
:10045000F7014081BE0180E093E00E94E10A21960D
:10046000F0CFDF91CF910F91FF90EF90DF90CF9081
:10047000BF90AF909F908F9008956F927F928F92D0
:100480009F92AF92BF92CF92DF92EF92FF920F9323
:100490001F93CF93DF93FC013B01EA014901BC01AB
:1004A00080E090E0EC32F140C8F41F921F921F925E
:1004B0002FEF2F93A12CB12C65011CE2E12EFF241C
:1004C000F39400E010E020E030E0A9019BD6F301B6
:1004D0001082862F8095F401808318C01F921F928E
:1004E0001F922FEF2F93A12CB12C650110E9E12E63
:1004F000FF24F39400E010E02DE231E040E050E012
:1005000081D6F3016083F4011082609568830F90B7
:100510000F900F900F90DF91CF911F910F91FF904F
:10052000EF90DF90CF90BF90AF909F908F907F9093
:100530006F900895EF92FF920F931F93CF93DF93E5
:1005400000D0CDB7DEB78AE379D59093B10280931E
:10055000B00289E373D59093B3028093B20288E32B
:100560006DD59093B5028093B40287E367D59093DD
:10057000B7028093B60286E361D59093B902809367
:10058000B8028FE35BD59093BB028093BA028EE3EF
:1005900055D59093BD028093BC028DE34FD59093C7
:1005A000BF028093BE028CE349D59093C102809331
:1005B000C002E0EBF2E084ECE82E82E0F82ED701F6
:1005C0002FEF33E081919191A901481B590B4D9375
:1005D0005D9352E0E23CF507A9F76EE372E080E13B
:1005E00093E0C2D36091C4027091C5024AE050E02A
:1005F00080E193E017D467E472E080E193E0B4D344
:100600006091C6027091C7024AE050E080E193E039
:1006100009D460E572E080E193E0A6D36091C8025E
:100620007091C9024AE050E080E193E0FBD369E5B4
:1006300072E080E193E098D36091CA027091CB029E
:100640004AE050E080E193E0EDD362E672E080E1C1
:1006500093E08AD36091CC027091CD024AE050E0E1
:1006600080E193E0DFD36BE672E080E193E07CD33E
:100670006091CE027091CF024AE050E080E193E0B9
:10068000D1D364E772E080E193E06ED36091D00251
:100690007091D1024AE050E080E193E0C3D36DE76E
:1006A00072E080E193E060D36091D2027091D30256
:1006B0004AE050E080E193E0B5D366E872E080E183
:1006C00093E052D36091D4027091D5024AE050E099
:1006D00080E193E0A7D34091C4025091C50260E04D
:1006E00070E08091D8029091D902A091DA02B09185
:1006F000DB020996A11DB11D481759076A077B0740
:1007000008F0B5C04091C6025091C70260E070E0A9
:100710008091DC029091DD02A091DE02B091DF02B7
:100720000996A11DB11D481759076A077B0708F0F4
:100730009EC04091C8025091C90260E070E0809173
:10074000E0029091E102A091E202B091E3020996E9
:10075000A11DB11D481759076A077B0708F087C01C
:100760004091CA025091CB0260E070E08091E402B7
:100770009091E502A091E602B091E7020996A11DD1
:10078000B11D481759076A077B0708F070C04091F0
:10079000CC025091CD0260E070E08091E80290912F
:1007A000E902A091EA02B091EB020996A11DB11DE8
:1007B000481759076A077B0708F059C04091CE02D5
:1007C0005091CF0260E070E08091EC029091ED02D8
:1007D000A091EE02B091EF020996A11DB11D48173C
:1007E00059076A077B0708F042C04091D002509138
:1007F000D10260E070E08091F0029091F102A0914E
:10080000F202B091F3020996A11DB11D48175907D4
:100810006A077B0760F54091D2025091D30260E0F5
:1008200070E08091F4029091F502A091F602B091EF
:10083000F7020996A11DB11D481759076A077B07E2
:10084000B0F44091D4025091D50260E070E0809104
:10085000F8029091F902A091FA02B091FB02099678
:10086000A11DB11D481759076A077B0710F061E009
:1008700001C060E085E098D400E010E09E012F5FA9
:100880003F4FAE014E5F5F4FBE016D5F7F4FF7017F
:10089000819191917F01F1DD0F5F1F4F9801AE01B2
:1008A0004F5F5F4FBE016E5F7F4FCE010396B1DD9C
:1008B0000930110519F780E093E07AD50F900F9079
:1008C0000F90DF91CF911F910F91FF90EF900895BE
:1008D00044E260E970E080E093E057C680E093E096
:1008E00036C5FC01918D228D892F90E0805C9F4F51
:1008F000821B91098F7399270895FC01918D828D38
:10090000981731F0828DE80FF11D858D90E00895E4
:100910008FEF9FEF0895FC01918D828D981761F004
:10092000828DDF01A80FB11D5D968C91928D9F5F26
:100930009F73928F90E008958FEF9FEF0895FC01D1
:10094000538D448D252F30E0842F90E0821B930B34
:10095000541710F0CF9608950197089584E396E018
:10096000892B39F080E090E0892B19F07DD181113D
:1009700025C080E090E0892B41F080E090E0892B59
:1009800021F00E94000081111CC080E090E0892BC2
:1009900041F080E090E0892B21F00E94000081115D
:1009A00013C080E090E0892BA1F080E090E0892BDB
:1009B00081F00E94000081110AC008950E94000089
:1009C000D8CF0E940000E1CF0E940000EACF0C9433
:1009D00000000895FC01848DDF01A80FB11DA35A0A
:1009E000BF4F2C91848D90E001968F739927848F4F
:1009F000A689B7892C93A089B1898C9180648C9346
:100A0000938D848D981306C00288F389E02D808130
:100A10008F7D80830895EF92FF920F931F93CF9362
:100A2000DF93EC0181E0888F9B8D8C8D981305C03E
:100A3000E889F989808185FD23C0F62E0B8D10E0B1
:100A40000F5F1F4F0F731127E02E8C8DE8120BC024
:100A50000FB607FCFACFE889F989808185FFF5CFC9
:100A6000CE01B8DFF2CF8B8DFE01E80FF11DE35A06
:100A7000FF4FF0820B8FEA89FB898081806207C07B
:100A8000EE89FF896083E889F989808180648083A9
:100A900081E090E0DF91CF911F910F91FF90EF9057
:100AA0000895CF93DF93EC01888D8823C1F0EA8904
:100AB000FB89808185FD05C0A889B9898C9186FD57
:100AC0000EC00FB607FCF5CF808185FFF2CFA88955
:100AD000B9898C9185FFEDCFCE017CDFE8CFDF9126
:100AE000CF910895CF92DF92EF92FF921F93CF9311
:100AF000DF93EC016A017B01122FE889F98982E01A
:100B000080834115514E61057105A9F060E079E0DF
:100B10008DE390E0A7019601CAD5DA01C9010197DA
:100B2000A109B109B695A795979587959C012115BF
:100B300080E13807A0F0E889F989108260E874E85C
:100B40008EE190E0A7019601B2D5DA01C9010197C3
:100B5000A109B109B695A795979587959C01EC8554
:100B6000FD853083EE85FF852083188EEC89FD8915
:100B70001083EA89FB89808180618083EA89FB890F
:100B8000808188608083EA89FB8980818068808396
:100B9000EA89FB8980818F7D8083DF91CF911F91CE
:100BA000FF90EF90DF90CF9008951F920F920FB6B5
:100BB0000F9211240BB60F922F938F939F93EF9365
:100BC000FF93E0912003F09121038081E0912603BF
:100BD000F091270382FD12C09081809129038F5FDD
:100BE0008F7320912A03821751F0E0912903F0E0DE
:100BF000E05FFC4F958F8093290301C08081FF91B6
:100C0000EF919F918F912F910F900BBE0F900FBE80
:100C10000F901F9018951F920F920FB60F921124EC
:100C20000BB60F922F933F934F935F936F937F93E6
:100C30008F939F93AF93BF93EF93FF9380E193E0E4
:100C4000C9DEFF91EF91BF91AF919F918F917F91FD
:100C50006F915F914F913F912F910F900BBE0F902D
:100C60000FBE0F901F90189580E193E03ADE21E0CF
:100C7000892B09F420E0822F0895E0E1F3E013824C
:100C8000128288EE93E0A0E0B0E084839583A6838F
:100C9000B78383E992E09183808385EC90E0958728
:100CA000848784EC90E09787868780EC90E0918B36
:100CB000808B81EC90E0938B828B82EC90E0958B23
:100CC000848B86EC90E0978B868B118E128E138E20
:100CD000148E0895089550D1FDDFCDDACEEAD4E028
:100CE00029DC2097E9F33ADEFBCFCF92DF92EF9237
:100CF000FF920F931F93CF93DF936C017A018B01C7
:100D0000C0E0D0E0CE15DF0581F0D8016D918D01F6
:100D1000D601ED91FC910190F081E02DC60119956D
:100D2000892B11F02196EECF7E01C701DF91CF9183
:100D30001F910F91FF90EF90DF90CF900895611574
:100D4000710579F0FB0101900020E9F73197AF01BF
:100D5000461B570BDC01ED91FC910280F381E02DE5
:100D6000199480E090E00895EACFDC01ED91FC91C8
:100D70000190F081E02D199461EA72E0E0CF8F924A
:100D80009F92AF92BF92EF92FF920F931F93CF93D8
:100D9000DF93CDB7DEB7A1970FB6F894DEBF0FBED5
:100DA000CDBF7C01FA01CB0119A2223008F42AE060
:100DB0008E010F5D1F4F822E912CA12CB12CBF01F3
:100DC000A501940174D4F901CA01015011096A30D6
:100DD00010F4605D01C0695CD8016C93232B242B57
:100DE000252B69F7B801C701AADFA1960FB6F894C1
:100DF000DEBF0FBECDBFDF91CF911F910F91FF904E
:100E0000EF90BF90AF909F908F900895211531057E
:100E100041F4DC01ED91FC910190F081E02D642F13
:100E20001994ADCF9A01AB0160E070E0EFCF0F9362
:100E30001F93CF93DF93EC01E9DF8C01CE019CDFA0
:100E4000800F911FDF91CF911F910F910895CF9245
:100E5000DF92EF92FF920F931F93CF93DF932115B1
:100E6000310581F4DC01ED91FC910190F081E02DE0
:100E7000642FDF91CF911F910F91FF90EF90DF9042
:100E8000CF9019942A303105F1F477FF1BC06A0125
:100E90007B01EC016DE269DF8C0144275527BA0123
:100EA0004C195D096E097F092AE0CE0168DF800FC9
:100EB000911FDF91CF911F910F91FF90EF90DF90E5
:100EC000CF9008952AE0DF91CF911F910F91FF906D
:100ED000EF90DF90CF9053CF9A01AB01770F660B65
:100EE000770BB5CF1F920F920FB60F9211242F934D
:100EF0003F938F939F93AF93BF938091AE03909155
:100F0000AF03A091B003B091B1033091AD0323E0E2
:100F1000230F2D3720F40196A11DB11D05C026E831
:100F2000230F0296A11DB11D2093AD038093AE0344
:100F30009093AF03A093B003B093B1038091B20339
:100F40009091B303A091B403B091B5030196A11D94
:100F5000B11D8093B2039093B303A093B403B093F5
:100F6000B503BF91AF919F918F913F912F910F90BA
:100F70000FBE0F901F901895789484B5826084BD41
:100F800084B5816084BD85B5826085BD85B581608D
:100F900085BDEEE6F0E0808181608083E1E8F0E0ED
:100FA0001082808182608083808181608083E0E81C
:100FB000F0E0808181608083E1EBF0E080818460FB
:100FC0008083E0EBF0E0808181608083E1E9F0E004
:100FD000808182608083808181608083E0E9F0E0AD
:100FE000808181608083E1EAF0E08081826080839B
:100FF000808181608083E0EAF0E08081816080838D
:10100000E1E2F1E080818260808380818160808381
:10101000E0E2F1E0808181608083EAE7F0E08081B6
:10102000846080838081826080838081816080830E
:101030008081806880831092C1000895863308F013
:10104000865390917B00282F2870977F922B909346
:101050007B002091060290E4299F90011124877063
:10106000822B80937C0080917A00806480937A0048
:1010700080917A0086FDFCCF8091780020917900E4
:1010800090E0922B089590E0FC013197E231F10558
:1010900008F04DC08827EE58FF4F8F4F46C3809110
:1010A00080008F7703C0809180008F7D80938000C7
:1010B000089580918000877FF9CF84B58F7702C033
:1010C00084B58F7D84BD08958091B0008F7703C073
:1010D0008091B0008F7D8093B00008958091900042
:1010E0008F7707C0809190008F7D03C08091900022
:1010F000877F8093900008958091A0008F7707C02C
:101100008091A0008F7D03C08091A000877F809395
:10111000A0000895809120018F7707C08091200161
:101120008F7D03C080912001877F809320010895E7
:10113000CF93DF9390E0FC01E25BFE4F2491FC0132
:10114000EC56FE4F8491882361F190E0880F991F3F
:10115000FC01EC50FE4FC591D491FC01E652FE4FCC
:10116000A591B491611109C09FB7F8948881209529
:1011700082238883EC912E230BC0623061F49FB7E9
:10118000F8948881322F309583238883EC912E2B1D
:101190002C939FBF06C08FB7F894E8812E2B28832D
:1011A0008FBFDF91CF9108951F93CF93DF93282FA7
:1011B00030E0F901E85FFE4F8491F901E25BFE4FF8
:1011C000D491F901EC56FE4FC491CC23B9F0162FFF
:1011D000811159DFEC2FF0E0EE0FFF1FE652FE4FBA
:1011E000A591B4919FB7F894111104C08C91D0953A
:1011F000D82302C0EC91DE2BDC939FBFDF91CF910F
:101200001F9108954F925F926F927F92AF92BF921B
:10121000CF92DF92EF92FF920F931F93CF93DF93C2
:10122000CDB7DEB729013A019B01AC01241935097C
:10123000460957098A899B89AC89BD89BC01CD01C2
:101240006A197B098C099D0923D2A80197012419E9
:101250003509460957094DD2CA01B9016A0D7B1DEE
:101260008C1D9D1DDF91CF911F910F91FF90EF90ED
:10127000DF90CF90BF90AF907F906F905F904F9036
:1012800008958EBD00000DB407FEFDCF8EB5089504
:10129000B9D18CB58C7F8CBD8DB581608DBD8CB581
:1012A0008F7D8CBD8CB5837F8CBD0895CF93DF93EC
:1012B000EC0161E08A813CDF61E08B8139DF8A816A
:1012C00090E0FC01EC56FE4FE491F0E0EE0FFF1FC2
:1012D000E652FE4FA591B491BD87AC872B8130E0DB
:1012E000F901EC56FE4FE491F0E0EE0FFF1FE652DD
:1012F000FE4F459154915F874E87FC01E25BFE4FA4
:1013000084918A87F901E25BFE4FE491EB879C911F
:10131000E82FE095E923EC93EE85FF8590818B859E
:10132000809589238083DF91CF910895FC012281EC
:101330002F3F09F4ADCFBACFCF93DF93EC0160E03C
:101340008A81F6DE60E08B81DF91CF91F1CECF9381
:10135000DF93EC018D819E81009709F09FD28A81F5
:101360008F3F19F4DF91CF917FC1CE01DF91CF91F3
:10137000E3CFFC0129E02150D1F0A485B585828519
:101380009C9167FF02C0892B02C0809589238C93B2
:10139000A685B7859C918385892B8C93A685B78577
:1013A0009C918385809589238C93660FE4CF089563
:1013B000BF92CF92DF92EF92FF920F931F93CF9342
:1013C000DF93FC01058116810115110509F48CC01C
:1013D000EC01E080F180B48082818F3F09F03CC055
:1013E00080E04FDF80E04DDF80E04BDF1EBC4FEF41
:1013F0000DB407FEFDCF4EBDF80183E09C8199231B
:1014000031F02081B29E90011124932F01C0908170
:101410000DB407FEFDCF9EBD815031968111EECFF8
:101420000D5F1F4FF1E0EF1AF10811F70DB407FE41
:10143000FDCF10E0212F30E0888199810F9664E084
:10144000969587956A95E1F72817390708F04CC0FB
:101450008FEF17DF1F5FEECF54E0D52E60E0CE0197
:1014600088DFDA94D110FACF8C81882321F16FEFD5
:10147000CE017FDF68010D5F1F4FF60181916F0183
:10148000B89EC0011124692FCE0173DFC016D106AA
:10149000A1F7F1E0EF1AF10851F710E013C0F601DF
:1014A00061916F01CE0165DFC016D106C1F7F1E091
:1014B000EF1AF10891F36FEFCE015BDF68010D5F6A
:1014C0001F4FEDCF212F30E0888199810F9644E0A6
:1014D000969587954A95E1F72817390728F46FEF15
:1014E000CE0147DF1F5FEECFDF91CF911F910F91AC
:1014F000FF90EF90DF90CF90BF900895FC0197810F
:10150000808520813181A901981307C04D5F5F4F0D
:10151000569547955695479502C0440F551F420F63
:10152000531F60E070E08581968141C20F931F9345
:10153000CF93DF93EC018B018D819E81009709F0A1
:10154000ADD19F818885981307C0C80103969695F1
:1015500087959695879503C0C801880F991F800FBE
:10156000911F04D19E838D83892B41F019830883B9
:10157000CE01DF91CF911F910F91C0CF19821882B8
:10158000DF91CF911F910F910895FC0171836083CA
:101590008FEF8283148216821582842F8370878353
:1015A00050E0CA01959587959595879583708087BA
:1015B00034E0559547953A95E1F743704187CF015F
:1015C000B5CF0F93FC018081918168177907C0F432
:1015D000CB01880F991F680F791F85819681680F4D
:1015E000791F8781DB01A80FB11D4C938085DB013A
:1015F000A80FB11D2C938185FB01E80FF11D00831D
:101600000F910895CF93CFB7F8948091B7038111CC
:1016100023C0E9ECF1E08491E3E8F1E09491E82F54
:10162000F0E0EE0FFF1FEC50FE4FA591B491EC914E
:10163000E92319F461E085E3B7DD61E085E378DD56
:101640008CB580618CBD8CB580648CBD61E084E319
:101650006FDD61E083E36CDD8091B7038F5F809382
:10166000B703CFBFCF9108959FB7F8948091B70388
:10167000882319F081508093B7038091B7038111BB
:1016800005C08CB58F7B8CBD1092B6039FBF0895AB
:10169000DB018F939F9351D0BF91AF91A29F800D9B
:1016A000911DA39F900DB29F900D11240895A1E26A
:1016B0001A2EAA1BBB1BFD010DC0AA1FBB1FEE1FCC
:1016C000FF1FA217B307E407F50720F0A21BB30B17
:1016D000E40BF50B661F771F881F991F1A9469F793
:1016E00060957095809590959B01AC01BD01CF01EF
:1016F0000895052E97FB16F400940FD057FD05D0E2
:10170000D6DF07FC02D046F408C0509540953095CE
:1017100021953F4F4F4F5F4F08959095809570955D
:1017200061957F4F8F4F9F4F0895EE0FFF1F881FCA
:101730008BBF0790F691E02D199409D0A59F900DCD
:10174000B49F900DA49F800D911D11240895A29F18
:10175000B001B39FC001A39F700D811D1124911D85
:10176000B29F700D811D1124911D08950F931F9339
:10177000CF93DF938230910510F482E090E0E09106
:10178000BA03F091BB0320E030E0A0E0B0E0309776
:1017900019F1408151810281138148175907C8F01E
:1017A0008417950769F4109731F012960C931297ED
:1017B00013961C9327C00093BA031093BB0322C057
:1017C0002115310519F04217530718F49A01BD018C
:1017D000EF01DF01F801DBCF21153105F9F0281BFE
:1017E000390B2430310580F48A819B8161157105A4
:1017F00021F0FB019383828304C09093BB03809309
:10180000BA03FE01329644C0FE01E20FF31F81933A
:10181000919322503109398328833AC02091B8032B
:101820003091B903232B41F420910202309103023D
:101830003093B9032093B803209100023091010244
:101840002115310541F42DB73EB740910402509166
:101850000502241B350BE091B803F091B903E217A0
:10186000F307A0F42E1B3F0B2817390778F0AC01C3
:101870004E5F5F4F2417350748F04E0F5F1F5093A0
:10188000B9034093B8038193919302C0E0E0F0E084
:10189000CF01DF91CF911F910F910895CF93DF93E7
:1018A000009709F481C0FC01329713821282A09143
:1018B000BA03B091BB03109781F420813181820F6C
:1018C000931F2091B8033091B9032817390751F5B8
:1018D000F093B903E093B80367C0ED0120E030E076
:1018E000CE17DF0740F44A815B819E014115510507
:1018F000F1F0EA01F5CFD383C28340815181840F97
:10190000951FC817D90759F488819981840F951FAD
:101910000296918380838A819B81938382832115A0
:10192000310529F4F093BB03E093BA033DC0E9010C
:10193000FB83EA8349915991C40FD51FEC17FD072A
:1019400061F480819181840F951F0296E90199834A
:101950008883828193819B838A83E0E0F0E0129602
:101960008D919C911397009719F0FD01DC01F7CF41
:101970008D919C9111979D012E5F3F4F820F931F78
:101980002091B8033091B9032817390769F43097CB
:1019900029F41092BB031092BA0302C01382128280
:1019A000B093B903A093B803DF91CF910895DC0100
:1019B00001C06D9341505040E0F7089511E0C9E037
:1019C000D1E000E005C0802FFE01AFDE2196011DB1
:0E19D000CA30D10780E00807B1F7F894FFCFC6
:1019DE000000BC032000013A393837363F3E3D3C0B
:1019EE0000092054656D703A20000920693A2000E4
:1019FE00092073756D20000920636F756E743A208F
:101A0E0000092041766572616765203A20000A74EC
:101A1E00656D70303A20000974656D70313A2000A2
:101A2E000974656D70323A20000974656D70333A31
:101A3E0020000974656D70343A20000974656D706C
:101A4E00353A20000974656D70363A2000097465C8
:101A5E006D70373A20000974656D70383A200000B9
:101A6E000000000B0575069F04510571048B047D63
:101A7E00040D0A006E616E00696E66006F76660078
:00000001FF
