S00E0000325F375F31382E7372656386
S113000009C1000036C1000034C1000032C1000043
S113001030C100002EC100002CC100002AC1000024
S113002028C1000026C1000024C1000022C1000034
S113003020C100001EC100001CC100001AC1000044
S113004018C1000016C1000014C1000012C1000054
S113005010C100000EC100000CC10000D8C4000093
S113006008C100009CC30000D0C3000002C100000E
S113007000C10000FEC00000FCC00000FAC0000087
S1130080F8C00000F6C00000F4C00000F2C0000098
S1130090F0C00000EEC00000ECC00000EAC00000A8
S11300A0E8C00000E6C00000E4C00000E2C00000B8
S11300B0E0C00000DEC00000DCC00000DAC00000C8
S11300C0D8C00000D6C00000D4C00000D2C00000D8
S11300D0D0C00000CEC00000CCC00000CAC00000E8
S11300E0C8C00000F205F505E405E805EE052C0698
S11300F0F905FD05030607060B0611061506190684
S11301002C061F062306270600000A0B02090C0D05
S11301100E080703040100000000000000000000B6
S113012000000000000000000000000000000000CB
S11301300000000012111000000000000000000088
S113014000000000000000000000000000000102A8
S113015010202008081020401020408002010201D5
S1130160080402010102040810204080804020108D
S113017008040201800402018040201008040201E6
S1130180080402010102040810204080010204084E
S11301901020408005050505070508080808020227
S11301A002020A0A0808040404040101010101010D
S11301B001010303030303030303040707070C0CF0
S11301C00C0C0C0C0C0C02020202060606060606B7
S11301D006060B0B0B0B0B0B0B0B00002200250070
S11301E028002B002E00310034000201000005011C
S11301F008010B0100002100240027002A002D0023
S11302003000330001010000040107010A015D020E
S11302103704680211241FBECFEFD1E2DEBFCDBF89
S113022000E00CBF12E0A0E0B2E0ECE0F5E100E099
S11302300BBF02C007900D92A434B107D9F723E095
S1130240A4E4B2E001C01D92A030B207E1F711E0CE
S1130250C9E0D1E000E005C021970109802FFE012B
S1130260FBD7C730D10780E00807B1F72ED30C9431
S1130270750AC6CE26E040E855E260E070E084E509
S113028092E02AD261E08DE0E8D484E492E0E3D500
S113029084E492E022C68F929F92AF92BF92CF9253
S11302A0DF92EF92FF920F93CF93DF935C016B0188
S11302B07A018BE0829FE001839FD00D11244E01CF
S11302C08BE0880E911CC815D9057CF4F5010081DA
S11302D0F6012081F7014081BE0184E492E008D751
S11302E084E492E0FAD52196EECFDF91CF910F917D
S11302F0FF90EF90DF90CF90BF90AF909F908F9042
S113030008956F927F928F929F92AF92BF92CF92F5
S1130310DF92EF92FF920F931F93CF93DF93FC0131
S11303203B01EA014901BC0180E090E0EC32F1407C
S1130330C8F41F921F921F922FEF2F93A12CB12C60
S113034065011CE2E12EFF24F39400E010E020E0BC
S113035030E0A901ECD4F3011082862F8095F401DA
S1130360808318C01F921F921F922FEF2F93A12CEE
S1130370B12C650118EBE12EFF24F39400E010E0AA
S11303802DE231E040E050E0D2D4F3016083F40187
S11303901082609568830F900F900F900F90DF91FB
S11303A0CF911F910F91FF90EF90DF90CF90BF906E
S11303B0AF909F908F907F906F9008958F929F92AF
S11303C0AF92BF92CF92DF92EF92FF920F931F935F
S11303D0CF93DF9300D0CDB7DEB786E3C4D34C010F
S11303E087E3C1D35C0188E3BED36C0189E3BBD34B
S11303F08C018AE3B8D37C0167E072E084E592E083
S1130400ADD24AE050E0B40184E592E0FBD260E171
S113041072E084E592E0A2D24AE050E0B50184E5BE
S113042092E0F0D269E172E084E592E097D24AE08A
S113043050E0B60184E592E0E5D262E272E084E540
S113044092E08CD24AE050E0B80184E592E0DAD23E
S11304506BE272E084E592E081D20FEF13E00E19B3
S11304601F094AE050E0B80184E592E0CBD29E0136
S11304702F5F3F4FAE014E5F5F4FBE016D5F7F4FF9
S1130480C8013FDF20E030E0AE014F5F5F4FBE01A7
S11304906E5F7F4FCE010396FEDE0F900F900F909C
S11304A0DF91CF911F910F91FF90EF90DF90CF904C
S11304B0BF90AF909F908F9008950F9304E225E032
S11304C044E060E970E084E492E0F4D50F9108958B
S11304D084E492E0D1C4FC01918D228D892F90E0B7
S11304E0805C9F4F821B91098F7399270895FC01AB
S11304F0918D828D981731F0828DE80FF11D858DD5
S113050090E008958FEF9FEF0895FC01918D828D07
S1130510981761F0828DDF01A80FB11D5D968C9153
S1130520928D9F5F9F73928F90E008958FEF9FEF5E
S11305300895FC01538D448D252F30E0842F90E0E5
S1130540821B930B541710F0CF96089501970895CA
S11305508EE294E0892B39F080E090E0892B19F049
S11305607DD1811125C080E090E0892B41F080E0AD
S113057090E0892B21F00E94000081111CC080E0D2
S113058090E0892B41F080E090E0892B21F00E94DB
S11305900000811113C080E090E0892BA1F080E07D
S11305A090E0892B81F00E94000081110AC0089517
S11305B00E940000D8CF0E940000E1CF0E940000FA
S11305C0EACF0C9400000895FC01848DDF01A80F8C
S11305D0B11DA35ABF4F2C91848D90E001968F7367
S11305E09927848FA689B7892C93A089B1898C9186
S11305F080648C93938D848D981306C00288F3894C
S1130600E02D80818F7D80830895EF92FF920F9378
S11306101F93CF93DF93EC0181E0888F9B8D8C8DAA
S1130620981305C0E889F989808185FD23C0F62ED9
S11306300B8D10E00F5F1F4F0F731127E02E8C8D71
S1130640E8120BC00FB607FCFACFE889F98980815C
S113065085FFF5CFCE01B8DFF2CF8B8DFE01E80F19
S1130660F11DE35AFF4FF0820B8FEA89FB898081E9
S1130670806207C0EE89FF896083E889F9898081F7
S11306808064808381E090E0DF91CF911F910F918E
S1130690FF90EF900895CF93DF93EC01888D88232A
S11306A0C1F0EA89FB89808185FD05C0A889B989E3
S11306B08C9186FD0EC00FB607FCF5CF808185FFB7
S11306C0F2CFA889B9898C9185FFEDCFCE017CDF6B
S11306D0E8CFDF91CF910895CF92DF92EF92FF920E
S11306E01F93CF93DF93EC016A017B01122FE889FA
S11306F0F98982E080834115514E61057105A9F0A5
S113070060E079E08DE390E0A701960167D5DA0116
S1130710C9010197A109B109B695A7959795879540
S11307209C01211580E13807A0F0E889F98910823D
S113073060E874E88EE190E0A70196014FD5DA01F4
S1130740C9010197A109B109B695A7959795879510
S11307509C01EC85FD853083EE85FF852083188E12
S1130760EC89FD891083EA89FB898081806180831B
S1130770EA89FB89808188608083EA89FB8980819A
S113078080688083EA89FB8980818F7D8083DF9103
S1130790CF911F91FF90EF90DF90CF9008951F921B
S11307A00F920FB60F9211240BB60F922F938F93C3
S11307B09F93EF93FF93E0916402F091650280812F
S11307C0E0916A02F0916B0282FD12C090818091E7
S11307D06D028F5F8F7320916E02821751F0E0914A
S11307E06D02F0E0EC5AFD4F958F80936D0201C0CD
S11307F08081FF91EF919F918F912F910F900BBE6C
S11308000F900FBE0F901F9018951F920F920FB666
S11308100F9211240BB60F922F933F934F935F9334
S11308206F937F938F939F93AF93BF93EF93FF93B4
S113083084E592E0C9DEFF91EF91BF91AF919F9162
S11308408F917F916F915F914F913F912F910F9075
S11308500BBE0F900FBE0F901F90189584E592E089
S11308603ADE21E0892B09F420E0822F0895E4E5A3
S1130870F2E01382128288EE93E0A0E0B0E0848379
S11308809583A683B78386E392E09183808385EC86
S113089090E09587848784EC90E09787868780EC46
S11308A090E0918B808B81EC90E0938B828B82EC37
S11308B090E0958B848B86EC90E0978B868B118EE1
S11308C0128E138E148E08950895EBD0FDDFD2DCC2
S11308D0C8EAD2E073DD2097E9F33ADEFBCFCF928A
S11308E0DF92EF92FF920F931F93CF93DF936C01EC
S11308F07A018B01C0E0D0E0CE15DF0581F0D8018C
S11309006D918D01D601ED91FC910190F081E02D66
S1130910C6011995892B11F02196EECF7E01C701EE
S1130920DF91CF911F910F91FF90EF90DF90CF90C7
S113093008956115710579F0FB0101900020E9F734
S11309403197AF01461B570BDC01ED91FC910280FE
S1130950F381E02D199480E090E00895EACF8F921E
S11309609F92AF92BF92EF92FF920F931F93CF93F8
S1130970DF93CDB7DEB7A1970FB6F894DEBF0FBEF5
S1130980CDBF7C01FA01CB0119A2223008F42AE080
S11309908E010F5D1F4F822E912CA12CB12CBF0113
S11309A0A50194011BD4F901CA01015011096A304F
S11309B010F4605D01C0695CD8016C93232B242B77
S11309C0252B69F7B801C701B4DFA1960FB6F894D7
S11309D0DEBF0FBECDBFDF91CF911F910F91FF906E
S11309E0EF90BF90AF909F908F900895211531059F
S11309F041F4DC01ED91FC910190F081E02D642F34
S1130A001994ADCF9A01AB0160E070E0EFCF1F9273
S1130A100F920FB60F9211242F933F938F939F93AE
S1130A20AF93BF938091F2029091F302A091F402EC
S1130A30B091F5023091F10223E0230F2D3720F419
S1130A400196A11DB11D05C026E8230F0296A11D24
S1130A50B11D2093F1028093F2029093F302A093CC
S1130A60F402B093F5028091F6029091F702A091FE
S1130A70F802B091F9020196A11DB11D8093F6020E
S1130A809093F702A093F802B093F902BF91AF914B
S1130A909F918F913F912F910F900FBE0F901F90B8
S1130AA01895789484B5826084BD84B5816084BDD2
S1130AB085B5826085BD85B5816085BDEEE6F0E0D3
S1130AC0808181608083E1E8F0E01082808182602F
S1130AD08083808181608083E0E8F0E080818160B0
S1130AE08083E1EBF0E0808184608083E0EBF0E0E0
S1130AF0808181608083E1E9F0E08081826080838D
S1130B00808181608083E0E9F0E08081816080837E
S1130B10E1EAF0E08081826080838081816080836B
S1130B20E0EAF0E0808181608083E1E2F1E08081AD
S1130B3082608083808181608083E0E2F1E0808153
S1130B4081608083EAE7F0E0808184608083808133
S1130B5082608083808181608083808180688083DB
S1130B601092C1000895863308F0865390917B005B
S1130B70282F2870977F922B90937B002091060258
S1130B8090E4299F900111248770822B80937C002C
S1130B9080917A00806480937A0080917A0086FD47
S1130BA0FCCF809178002091790090E0922B0895F9
S1130BB090E0FC013197E231F10508F04DC088273F
S1130BC0EE58FF4F8F4F48C3809180008F7703C04A
S1130BD0809180008F7D80938000089580918000B3
S1130BE0877FF9CF84B58F7702C084B58F7D84BDAC
S1130BF008958091B0008F7703C08091B0008F7DFD
S1130C008093B0000895809190008F7707C0809101
S1130C1090008F7D03C080919000877F8093900027
S1130C2008958091A0008F7707C08091A0008F7DE8
S1130C3003C08091A000877F8093A00008958091D5
S1130C4020018F7707C0809120018F7D03C08091A0
S1130C502001877F809320010895CF93DF9390E054
S1130C60FC01E25BFE4F2491FC01EC56FE4F8491A3
S1130C70882361F190E0880F991FFC01EC50FE4F2E
S1130C80C591D491FC01E652FE4FA591B491611136
S1130C9009C09FB7F8948881209582238883EC91BA
S1130CA02E230BC0623061F49FB7F8948881322FF1
S1130CB0309583238883EC912E2B2C939FBF06C001
S1130CC08FB7F894E8812E2B28838FBFDF91CF91C3
S1130CD008951F93CF93DF93282F30E0F901E85F45
S1130CE0FE4F8491F901E25BFE4FD491F901EC5679
S1130CF0FE4FC491CC23B9F0162F811159DFEC2F8C
S1130D00F0E0EE0FFF1FE652FE4FA591B4919FB79E
S1130D10F894111104C08C91D095D82302C0EC91A1
S1130D20DE2BDC939FBFDF91CF911F9108954F92EB
S1130D305F926F927F92AF92BF92CF92DF92EF92C7
S1130D40FF920F931F93CF93DF93CDB7DEB72901A3
S1130D503A019B01AC0124193509460957098A89CE
S1130D609B89AC89BD89BC01CD016A197B098C09B9
S1130D709D0925D2A8019701241935094609570967
S1130D804FD2CA01B9016A0D7B1D8C1D9D1DDF91D7
S1130D90CF911F910F91FF90EF90DF90CF90BF9074
S1130DA0AF907F906F905F904F9008958EBD00003C
S1130DB00DB407FEFDCF8EB50895BBD18CB58C7FE5
S1130DC08CBD8DB581608DBD8CB58F7D8CBD8CB592
S1130DD0837F8CBD0895CF93DF93EC0161E08A811A
S1130DE03CDF61E08B8139DF8A8190E0FC01EC56C5
S1130DF0FE4FE491F0E0EE0FFF1FE652FE4FA59187
S1130E00B491BD87AC872B8130E0F901EC56FE4FDD
S1130E10E491F0E0EE0FFF1FE652FE4F459154912E
S1130E205F874E87FC01E25BFE4F84918A87F9015C
S1130E30E25BFE4FE491EB879C91E82FE095E92378
S1130E40EC93EE85FF8590818B8580958923808343
S1130E50DF91CF910895FC0122812F3F09F4ADCF9A
S1130E60BACFCF93DF93EC0160E08A81F6DE60E0D5
S1130E708B81DF91CF91F1CECF93DF93EC018D8104
S1130E809E81009709F0A1D28A818F3F19F4DF91E6
S1130E90CF9181C1CE01DF91CF91E3CFFC0129E055
S1130EA02150D1F0A485B58582859C9167FF02C04D
S1130EB0892B02C0809589238C93A685B7859C9144
S1130EC08385892B8C93A685B7859C918385809592
S1130ED089238C93660FE4CF0895BF92CF92DF925B
S1130EE0EF92FF920F931F93CF93DF93FC01058141
S1130EF016810115110509F48CC0EC01E080F18024
S1130F00B48082818F3F09F03CC080E04FDF80E0F5
S1130F104DDF80E04BDF1EBC4FEF0DB407FEFDCF6D
S1130F204EBDF80183E09C81992331F02081B29E6B
S1130F3090011124932F01C090810DB407FEFDCFC1
S1130F409EBD815031968111EECF0D5F1F4FF1E0B0
S1130F50EF1AF10811F70DB407FEFDCF10E0212FB1
S1130F6030E0888199810F9664E0969587956A951B
S1130F70E1F72817390708F04CC08FEF17DF1F5F20
S1130F80EECF54E0D52E60E0CE0188DFDA94D110A4
S1130F90FACF8C81882321F16FEFCE017FDF6801C6
S1130FA00D5F1F4FF60181916F01B89EC00111249E
S1130FB0692FCE0173DFC016D106A1F7F1E0EF1A55
S1130FC0F10851F710E013C0F60161916F01CE01F1
S1130FD065DFC016D106C1F7F1E0EF1AF10891F30D
S1130FE06FEFCE015BDF68010D5F1F4FEDCF212F47
S1130FF030E0888199810F9644E0969587954A95CB
S1131000E1F72817390728F46FEFCE0147DF1F5F98
S1131010EECFDF91CF911F910F91FF90EF90DF9072
S1131020CF90BF900895FC01978180852081318104
S1131030A901981307C04D5F5F4F56954795569584
S1131040479502C0440F551F420F531F60E070E0E4
S11310508581968143C20F931F93CF93DF93EC0155
S11310608B018D819E81009709F0AFD19F81888586
S1131070981307C0C801039696958795969587950A
S113108003C0C801880F991F800F911F06D19E834A
S11310908D83892B41F019830883CE01DF91CF9191
S11310A01F910F91C0CF19821882DF91CF911F91A8
S11310B00F9108950F931F93FC014283238314829D
S11310C016821582802F8370878310E0C80195955E
S11310D08795959587958370808734E01595079556
S11310E03A95E1F703700187CF011F910F91B3CFB8
S11310F00F93FC018081918168177907C0F4CB01BB
S1131100880F991F680F791F85819681680F791F51
S11311108781DB01A80FB11D4C938085DB01A80FEB
S1131120B11D2C938185FB01E80FF11D00830F9104
S11311300895CF93CFB7F8948091FB02811123C017
S1131140E9ECF1E08491E3E8F1E09491E82FF0E038
S1131150EE0FFF1FEC50FE4FA591B491EC91E923E3
S113116019F461E085E3B5DD61E085E376DD8CB5F6
S113117080618CBD8CB580648CBD61E084E36DDDE1
S113118061E083E36ADD8091FB028F5F8093FB0261
S1131190CFBFCF9108959FB7F8948091FB02882325
S11311A019F081508093FB028091FB02811105C0EC
S11311B08CB58F7B8CBD1092FA029FBF0895DB0122
S11311C08F939F9351D0BF91AF91A29F800D911D9A
S11311D0A39F900DB29F900D11240895A1E21A2EA1
S11311E0AA1BBB1BFD010DC0AA1FBB1FEE1FFF1FC7
S11311F0A217B307E407F50720F0A21BB30BE40B17
S1131200F50B661F771F881F991F1A9469F760955D
S11312107095809590959B01AC01BD01CF01089517
S1131220052E97FB16F400940FD057FD05D0D6DF9A
S113123007FC02D046F408C050954095309521959E
S11312403F4F4F4F5F4F08959095809570956195EE
S11312507F4F8F4F9F4F0895EE0FFF1F881F8BBF47
S11312600790F691E02D199409D0A59F900DB49F95
S1131270900DA49F800D911D11240895A29FB0018B
S1131280B39FC001A39F700D811D1124911DB29FB6
S1131290700D811D1124911D08950F931F93CF93F9
S11312A0DF938230910510F482E090E0E091FE0239
S11312B0F091FF0220E030E0A0E0B0E0309719F1B7
S11312C0408151810281138148175907C8F084175E
S11312D0950769F4109731F012960C9312971396B0
S11312E01C9327C00093FE021093FF0222C0211515
S11312F0310519F04217530718F49A01BD01EF01A3
S1131300DF01F801DBCF21153105F9F0281B390B7A
S11313102430310580F48A819B816115710521F0A7
S1131320FB019383828304C09093FF028093FE02A7
S1131330FE01329644C0FE01E20FF31F81939193A4
S113134022503109398328833AC02091FC0230911C
S1131350FD02232B41F420910202309103023093C9
S1131360FD022093FC02209100023091010221151C
S1131370310541F42DB73EB7409104025091050266
S1131380241B350BE091FC02F091FD02E217F307F8
S1131390A0F42E1B3F0B2817390778F0AC014E5FE1
S11313A05F4F2417350748F04E0F5F1F5093FD021F
S11313B04093FC028193919302C0E0E0F0E0CF01FE
S11313C0DF91CF911F910F910895CF93DF930097F1
S11313D009F481C0FC01329713821282A091FE02AB
S11313E0B091FF02109781F420813181820F931F05
S11313F02091FC023091FD022817390751F5F09332
S1131400FD02E093FC0267C0ED0120E030E0CE175E
S1131410DF0740F44A815B819E0141155105F1F0DB
S1131420EA01F5CFD383C28340815181840F951F94
S1131430C817D90759F488819981840F951F02969A
S1131440918380838A819B819383828321153105D3
S113145029F4F093FF02E093FE023DC0E901FB830F
S1131460EA8349915991C40FD51FEC17FD0761F424
S113147080819181840F951F0296E9019983888365
S1131480828193819B838A83E0E0F0E012968D91C0
S11314909C911397009719F0FD01DC01F7CF8D9112
S11314A09C9111979D012E5F3F4F820F931F2091B6
S11314B0FC023091FD022817390769F4309729F4AA
S11314C01092FF021092FE0202C013821282B093A5
S11314D0FD02A093FC02DF91CF910895DC0101C0CD
S11314E06D9341505040E0F7089511E0C9E0D1E018
S11314F000E005C0802FFE01AFDE2196011DCA3039
S10F1500D10780E00807B1F7F894FFCF92
S113150C000000032000010A74656D70303A20005D
S113151C0974656D70313A20000974656D70323A46
S113152C20000974656D70333A2000094176673ADE
S113153C20000000000005036F0499024B036B02AA
S107154C8502770297
S9030000FC
